S01000004C574D5F4D5353592E7372656379
S113000099C00000B7C00000B5C00000B3C0000034
S1130010B1C00000AFC00000ADC00000ABC0000024
S1130020A9C00000A7C00000A5C00000A3C0000034
S1130030A1C000009EC100009DC000009BC0000044
S113004099C0000097C0000095C0000093C0000054
S113005091C000008FC000008DC000008BC0000064
S113006089C0000087C0000085C0000083C0000074
S113007081C000007FC000007DC000007BC0000084
S113008079C0000077C0000075C0000073C0000094
S11300903DC200001FC200006DC000006BC0000024
S11300A069C0000067C0000053C1000063C00000C5
S11300B061C000005FC000005DC000005BC00000C4
S11300C059C0000057C0000055C0000053C00000D4
S11300D051C000004FC000004DC000004BC00000E4
S11300E049C0000047C0000045C0000043C00000F4
S11300F041C000003FC000003DC000003BC0000004
S113010039C0000037C0000035C0000033C0000013
S113011031C000002FC000002DC000002BC0000023
S113012029C0000027C0000025C0000023C0000033
S113013021C0000011241FBECFEFD1E8DEBFCDBF28
S113014000E00CBF12E0A0E0B2E0E0EBF8E100E078
S11301500BBF02C007900D92A430B107D9F72AE172
S1130160A4E0B2E001C01D92A230B207E1F78DD045
S11301700C94560C45CF1092DF0208950895CF9346
S1130180DF93EC018091DA1958D18A8156D181E04C
S1130190DF91CF9108955F926F927F928F929F9299
S11301A0AF92BF92CF92DF92EF92FF920F931F9381
S11301B0CF93DF938C01892B09F44FC0C0E0D0E0CA
S11301C00F2EF0EEEF2EF2E0FF2EF02DAA24A394D2
S11301D0B12C882483946894552451F80F2EFDE69D
S11301E06F2EF02D0F2EFBEBCF2EF0E0DF2EF02D37
S11301F0712C4AD1982EE0910402ED3601F58091DC
S1130200DF02811126C08DE6E5E0F2E0A2E7B2E06C
S113021001900D928A95E1F7F701B682A582878253
S11302208086518682E792E0938782876486D686A9
S1130230C586C7015DD28092DF02E72D02C0ED368C
S113024040F481E08E0F80930402F0E0EB5FFD4FF9
S1130250908221960C171D0761F681EF92E00E94AF
S1130260CE0A81EF92E00E94250BDF91CF911F917E
S11302700F91FF90EF90DF90CF90BF90AF909F9041
S11302808F907F906F905F9008950E945B0A60E06A
S113029076E980E090E07CD081E6CFD0C0E06FEBDF
S11302A070E08C2FF0D1CF5FC031C9F7C1EFD2E03D
S11302B00F2EF4E1CF2ED12CE12CF12CF02D0EEBEE
S11302C010E00E94610A79D18091FE028111F9CF78
S11302D080E090E0CCD180E990E0CFD18FE00E9423
S11302E08A0981E00E948609CE82DF82E886F98647
S11302F01A861C870B8781E08093FE02E2CF14BE2E
S11303000FB6F894A895809160008861809360008E
S1130310109260000FBEE1E6F0E080E88083108276
S1130320789401C008951092D91980E197E29093CE
S1130330A9008093A800E1EAF0E088E0808380814E
S113034082608083E2E7F0E08081826080830895A8
S11303501F920F920FB60F9211248F938091D91987
S11303608F5F8093D9198F910F900FBE0F901F90BC
S113037018951F920F920FB60F9211248F9381E05C
S11303808093FF028F910F900FBE0F901F901895CE
S1130390DC01CB01880F991FAA1FBB1F880F991F6F
S11303A0AA1FBB1F9C01AD01220F331F441F551F01
S11303B0220F331F441F551F60E074E284EF90E066
S11303C00E949B0BBA01A9014150510961097109AD
S11303D0BB27A72F962F852F8093CD004093CC0069
S11303E082E08093C80088E98093C90086E0809306
S11303F0CA00EEE2F6E08DE994E09187808780E917
S113040091E095838483178216821182108213826D
S11304101282E3E9F4E022E033E031872087958318
S1130420848317821682118210821382128281E0E1
S113043080930103109200030895CF93DF93EEE2BB
S1130440F6E0268137816481758126173707C9F064
S1130450C085D18542815381DA011196B383A28389
S1130460FE01E40FF51F80836A177B0721F41092C5
S11304703106109230062F5F3F4F3093350620939C
S11304803406DF91CF9108954FB7F894E3E9F4E08F
S11304902085318580819181BC016F5F7F4F71839D
S11304A06083D901A80FB91F8C9160817181248167
S11304B035816217730721F4109294041092930407
S11304C0E3E9F4E02681378121503109378326831B
S11304D04FBF08951F920F920FB60F9211240BB6BF
S11304E00F928F93EF93FF9381E080930103E9ECE4
S11304F0F0E080818F7D8083FF91EF918F910F9049
S11305000BBE0F900FBE0F901F9018951F920F9265
S11305100FB60F9211240BB60F922F933F934F9364
S11305205F936F937F938F939F93AF93BF93EF9357
S1130530FF938091C8002091CE008C7159F5E3E9B6
S1130540F4E046815781848195814817590711F158
S11305504085518582819381BC016F5F7F4F738396
S11305606283DA01A80FB91F2C932281338184811D
S113057095812817390721F4109296041092950456
S1130580E3E9F4E08681978101969783868381E08D
S113059080930003FF91EF91BF91AF919F918F9151
S11305A07F916F915F914F913F912F910F900BBE6F
S11305B00F900FBE0F901F90189580913406909164
S11305C03506009769F120910103222349F1EEE2F7
S11305D0F6E06085718520813181A9014F5F5F4F0D
S11305E051834083DB01A20FB31F2C916481758179
S11305F04617570721F410922F0610922E060197E2
S113060090933506809334069FB7F8942093CE00D8
S1130610E9ECF0E0808180628083109201039FBF47
S11306202FB7F8949091000310920003409199041D
S113063050919A042FBF992311F0CA01ACCD0895AB
S1130640EAEDF9E1148215821182108217A216A232
S1130650E0EEF9E180E09AE111921192E817F907CE
S1130660D9F7ADD4D7D20BD13ED090C10895909391
S1130670DB198093DA1964C608959093DD19809389
S1130680DC194CC60895E82FF0E0EE0FFF1FE0528E
S1130690F64E718360830895F5D24AD54DC008950E
S11306A0E0913806F09139063097D9F022813381F0
S11306B08217930789F405C02281338128173907EB
S11306C059F4DC01AD57BF4F2C91278713962C9119
S11306D0208B22E0248305C00190F081E02D309727
S11306E059F711C1089510923906109238060895E9
S11306F0FC011482178613821282AAEDB9E1969640
S11307008D919C919797019697969C938E9396972B
S11307108091380690913906009739F4118210823D
S1130720F0933906E0933806089591838083F0931B
S11307303906E093380608950F931F93CF93DF9300
S1130740E0913806F0913906309709F493C0EF012F
S11307508C81882321F0823009F466C085C09AD048
S11307608C01009721F482E08C838F8783C09B8364
S11307708A8381E08C83F801E957FF4F80E593E099
S1130780918380833197898582FB882780F98083D0
S11307909985D8011B968C911B9790FB80F91B9629
S11307A08C931B97998593FB992790F990FB82F979
S11307B01B968C931B97EAEDF9E184818F5F848308
S11307C01C968C931C97808191811E969C938E938A
S11307D01D978D819E8150969C938E931F9788853B
S11307E0982F9F7051968C915197807F892B5196A9
S11307F08C9351979F819295907F8F70892B5196FE
S11308008C93F801EF57FF4F4C8550E06A857B8548
S1130810808191810E94120CF80191818C85890F4D
S11308208183C801EFD326C0EC17FD0741F4808112
S1130830918190933906809338060AC0FC01808127
S113084091818C179D07D1F7888199819183808349
S1130850EAEDF9E186A197A1019797A386A3ED8517
S1130860FE85CE01199506C00990D881C02D209728
S113087009F06ECFDF91CF911F910F910895EAE3B4
S1130880F6E088E496E11082E757FF4FE817F9078E
S1130890D1F7089580913A06882359F0E3ECF6E005
S11308A068E476E181E090E0AC012081211122C06E
S11308B002C040E050E069E8649F9001659F300DFC
S11308C01124C901865C994FFC0111926A95E9F7DC
S11308D040E1FC014183EF57FF4F245B394F3183E3
S11308E02083EAEDF9E126A137A12F5F3F4F37A31B
S11308F026A308950196E757FF4FE617F707A1F6D9
S113090080E090E00895FC011082EAEDF9E186A10F
S113091097A1019797A386A30895009741F0FC013E
S1130920E757FF4F86E1E834F80718F012C0EAE30E
S1130930F6E08081882321F00FC0808181110FC0EF
S1130940E757FF4F86E1E834F807B8F380E090E01A
S1130950089580E090E008958E2F9F2F08958E2FA4
S11309609F2F0895FC01DC01AD57BF4F1C92AAEDE7
S1130970B9E114969C9114979F5F14969C931497D5
S113098094878D919C91968785870895A9E4B6E113
S113099080E090E04FEF5FEF11965C934E93FC0183
S11309A0EE0FFF1FEE0FFF1FEE0FFF1FE81BF90BEB
S11309B0E85BF94E20812E7F208314961C921497B5
S11309C0019617968436910539F708950F931F936E
S11309D0CF93DF93E9E4F6E120E030E0062F10E066
S11309E04081518148175907B1F4D901AA0FBB1F9F
S11309F0AA0FBB1FAA0FBB1FA21BB30BA85BB94E48
S1130A004C9146954170C42F40E0D42FC017D107B4
S1130A1011F4CD0108C02F5F3F4F379624363105BE
S1130A20F9F680E090E0DF91CF911F910F91089546
S1130A30FC01808180FD05C08FEF9FEF928381834D
S1130A4015820895C3DF009721F0FC01838194810E
S1130A5008958FEF9FEF0895B9DF009709F0E8CF6D
S1130A600895CF93DF93FC01878590898F3F2FEF03
S1130A709207D9F1EF01638563FB662760F9A6DF6E
S1130A80DC01892B91F18C9180FD2FC0FE01ED5783
S1130A90FF4F8081811119C08C918F7080638C937A
S1130AA015968C9115978F5F15968C938F3FE9F46B
S1130AB0EDE4F6E129E039E1808186958F5F80835A
S1130AC03796E217F307C1F710C09C91892F8295DE
S1130AD08F70815F8F70282F2295207F9F70922BBB
S1130AE09C93811102C0CD01A3DFDF91CF910895C2
S1130AF0CF93DF93FC01878590898F3F2FEF920777
S1130B0029F48FEF9FEF908787830EC0238522FF00
S1130B1003C09087878308C0EF01638563FB662762
S1130B2060F990DF98878F83DF91CF910895AF921A
S1130B30BF92CF92DF92EF92FF921F93CF93DF93F6
S1130B40EC011B8513FB112710F9CF84D888612F82
S1130B50C60178DF019659F0FE01E957FF4F118273
S1130B601082319782E08083CE014CD222C0AD84C2
S1130B70BE8490DE7C010097D1F0F4DEF701818120
S1130B808A5F8183E957FF4F11821082F701B08A8F
S1130B90A786EF57FF4F0190F081E02D81E080831D
S1130BA0B282A182D482C3821583C7012BD2CE0123
S1130BB0AADEDF91CF911F91FF90EF90DF90CF904D
S1130BC0BF90AF900895FC012185263049F4078039
S1130BD0F085E02D6581838194813EDF81E0089575
S1130BE080E00895DC0119962C911997222371F065
S1130BF01796ED91FC9118972081222319F021304A
S1130C0019F006C04DC20895DECF089580E008951E
S1130C1080E00895E9E0F9E18BE399E110823596EB
S1130C20E817F907D9F762EF75E080E02CCD089555
S1130C30CF93DF93DC01ED91FC911197218128384A
S1130C40F1F420812F7D2134D1F412962C9120319E
S1130C50B0F0EC011FDE009791F020E2FC0120834C
S1130C602A8121832B81ED57FF4F20832C813196DC
S1130C7020834A8150E0688179810296D3D5DF913F
S1130C80CF9108957F928F929F92AF92BF92CF920D
S1130C90DF92EF92FF920F931F93CF93DF93CDB721
S1130CA0DEB72C970FB6F894DEBF0FBECDBF00E0C1
S1130CB010E00F2EF4E2BF2EF02D0F2EFAEDCF2E02
S1130CC0F9E1DF2EF02D772473946894882484F856
S1130CD06894992493F86894AA24A2F8F8C0D801D7
S1130CE08C91823229F118F4803241F0F0C08332C1
S1130CF009F4E8C0843209F4E8C0E9C08DE09DDB62
S1130D008AE09BDBF801B082EF57FF4F0190F0813E
S1130D10E02D808192DB8DE090DB8AE08EDBD801D0
S1130D201F968C918ADB8DE088DB8AE086DBCFC05E
S1130D3010920419F801818982958F70E82FF0E0F0
S1130D40EE0FFF1FE052F64E0190F081E02D309738
S1130D5009F461C0D8011D962D913C911E973A83E8
S1130D6029831F964D915C9150975C834B835196D8
S1130D709C9151979F709D838E83AF57BF4F8D91E8
S1130D809C9199878887B8016E5F7F4F861B970B6C
S1130D90D80111969C911197981B9A87AD57BF4F14
S1130DA08C918B8711968C918C87D8011B969C9182
S1130DB0692F637092FD02C080E001C080E2862B3F
S1130DC093FD02C090E001C090E4892B4F3F5F4F38
S1130DD011F090E001C09A2D892BD80119964D91FC
S1130DE05C911A972417350711F090E001C0992DF2
S1130DF0892B8F83D80115962D913C9116972F3FFF
S1130E003F4F11F090E001C0982D892B8F83CE01C4
S1130E100196199501C080E0F801938590FF80E068
S1130E20D80117962D913C9118972F3F3F4F69F4A5
S1130E30F60140815181D8011F962D913C91509724
S1130E404217530711F493FF872DF801258136814A
S1130E502F3F3F4FA1F1D6012D913C912F3F3F4FA2
S1130E6071F1882361F116DD7C01009741F17ADD8F
S1130E70F70181818D5F8183E957FF4F11821082D1
S1130E80D8011B968C911B9786958170F7019385E9
S1130E9080FB91F993871D968D919C911E97908B61
S1130EA08787EF57FF4F0190F081E02D10828091EA
S1130EB0041982831C968C918183C701A3D0D80125
S1130EC0BC9205C0C80133DE02C0C8011CDDC801E4
S1130ED024DD8C01892B09F002CF2C960FB6F894EF
S1130EE0DEBF0FBECDBFDF91CF911F910F91FF9059
S1130EF0EF90DF90CF90BF90AF909F908F907F90B6
S1130F000895EF92FF920F931F93CF937C0110E00B
S1130F1080E090E001E0C3E113C0FC0120812131B5
S1130F2079F4EC57FF4F208131812150310931830D
S1130F302083232B21F4FC01C083102F01C0102F28
S1130F40ECDC009751F7112311F0C7017ED3CF9148
S1130F501F910F91FF90EF900895EF92FF920F93DE
S1130F601F93CF93DF937C0110E080E090E001E0D9
S1130F70D7E1C0E116C0FC012081263191F4EC5781
S1130F80FF4F208131812150310931832083232B6C
S1130F9039F4FC01D083ED57FF4FC083102F01C0FB
S1130FA0102FBBDC009739F7112311F0C7014DD383
S1130FB0DF91CF911F910F91FF90EF9008951092C0
S1130FC0521910925119E4E4F9E182E390E0A0E0AF
S1130FD0B0E086839783A087B18712868DEA97E075
S1130FE094878387E7E3F9E18AE090E0A0E0B0E04A
S1130FF086839783A087B187128681E897E09487D8
S113100083870895CF93DF93EC01FC01EA57FF4FE8
S1131010808181FF03C092E1988302C092E19883AA
S1131020FE01ED57FF4F108280FF05C02FEF3FEF09
S11310303E832D8306C02091DC193091DD193E8357
S11310402D83857019F4CE0153DD04C08F859889F2
S113105098878F83EAEDF9E1808191819A87898766
S113106085818F5F85838C838F819885019669F450
S113107081E498E89B838A83C7D3CC57DF4F87707A
S1131080992701969983888308C081E698E89B8311
S11310908A83CC57DF4F19821882DF91CF9108954C
S11310A0CF93DF93FC0121852330D9F410C0FC01D8
S11310B02081263189F43485298132130DC027E13A
S11310C020832A81EA57FF4F208381E00BC0FC0173
S11310D0C781D08580E090E020DC009741F780E074
S11310E001C080E0DF91CF910895E0915119F09112
S11310F05219813021F048F0823019F004C080E2A6
S113110005C081E203C081E001C080E0DF01AD578A
S1131110BF4F8C9385E1808310925219109251191C
S1131120EAEDF9E186A197A1019797A386A3089513
S11311309F92AF92BF92CF92DF92EF92FF920F9362
S11311401F93CF93DF93C0E0D0E00F2EF4E1AF2ED6
S1131150F02D0AED19E10F2EF7E1DF2EF02D0F2E01
S1131160F6E19F2EF02D0F2EF9E2EF2EF12CF02D4B
S11311700F2EF3E1CF2EF02D0F2EF1E1BF2EF02D27
S113118060C088818331C1F018F4823139F059C0CC
S1131190853149F1873109F445C053C0FE01EC574C
S11311A0FF4F80819181892B29F0B88287E399E1EF
S11311B04CD247C0C88245C08091511990915219B0
S11311C0892B09F03EC0D0935219C0935119A882BB
S11311D06981CE010296CBD0F80186A197A1019630
S11311E097A386A32EC0FE01ED57FF4F8081811186
S11311F017C02D853E85F801808191812817390714
S113120069F48B8580FF0AC09882FE01EC57FF4F7A
S1131210F182E08284E499E118D213C0D88211C02B
S1131220D8820FC0CE011DDCFE01E957FF4F0190AB
S1131230F081E02D309719F4CE0165DB02C0CE01B8
S11312401995CE016ADBEC01892B09F09ACFDF9165
S1131250CF911F910F91FF90EF90DF90CF90BF90AF
S1131260AF909F90089580915319982F9F70E4E553
S1131270F1E08081807F892B8083809153198823BA
S113128029F0809154198093530108958091541941
S1131290982F9F71E8E4F1E08081807E892B808320
S11312A0089593E090934201E1E4F1E090819F710D
S11312B09830E1F780934201E1E4F1E090819F717D
S11312C08913FCCF089588E0ECDF8FEF80934F0102
S11312D080915519882311F086E1E3CF0895E9E35D
S11312E0F1E0808181608083109255191092531926
S11312F081E08093D61988E0D4DF8BEE8093560189
S1131300ECE4F1E08081806880830895809355192E
S1131310DACF089580935419A6CF0895CF93DF931D
S11313201F921F92CDB7DEB79A838983809362019F
S11313308A81809363010F900F90DF91CF9108957C
S1131340CF93DF931F921F92CDB7DEB79A83898321
S1131350809360018A818093610199818A81890FD8
S113136080936D010F900F90DF91CF9108951F939B
S1131370CF93DF93182FD92FC62F89E192DF8FEFF8
S113138080934F0182E08C0F80938001CC2371F015
S1131390A12FBD2FC1506C2F70E06E577E4FE1E836
S11313A0F1E08D918193E617F707D9F783E08093F5
S11313B0D61982E080934201DF91CF911F91089565
S11313C01F93CF93DF9300D01F921F92CDB7DEB748
S11313D08091D619823009F465C080914F0183FF52
S11313E03EC0A0917B016A2F70E0AB014F5F5F4F5D
S11313F080E090E020E0FC01E058FE4F3081FC01E9
S1131400EA5AF64E30832F5F822F90E084179507B7
S113141094F386E599E19A838983A250AB83FB0117
S1131420EA5AF64E80818C83809147018A558D83D8
S1131430CE010196FDDBE1E4F1E080818F7186311C
S1131440E1F7EFE4F1E0808188608083ECE4F1E08F
S113145080818F77808380818068808323C080919E
S11314604F0186FF1FC0809141018F718931A9F41A
S11314701091420112951695177049F0133021F01E
S1131480153021F013E003C011E001C012E01BDFAE
S113149081E08093D619812F28DEEFE4F1E080818A
S11314A0806480830F900F900F900F900F90DF91C6
S11314B0CF911F9108950E947F016BD010DFC0C8A7
S11314C008957EDFE9D8CCC008950F931F93CF937E
S11314D0DF93EC018091D7199091D819009709F402
S11314E045C04E815F8168857985FC010281138145
S11314F024813581401751076207730760F0DC01CE
S113150017C0028113812481358140175107620776
S1131510730768F403C0FC01A0E0B0E0041B150BE2
S1131520260B370B02831383248335830AC0DF0120
S1131530401B510B620B730BED91FC91119730978B
S113154001F74A835B836C837D83109741F08D910F
S11315509C91119799838883CD93DC9315C09983CB
S11315608883D093D819C093D7190EC019821882D2
S11315708E819F81A885B9858A839B83AC83BD8333
S1131580D093D819C093D719DF91CF911F910F91A0
S113159008951092D8191092D7190895CF93DF9314
S11315A0A091D719B091D819109791F1A817B9073C
S11315B051F50AC08E179F0729F5109731F0208145
S11315C031812D933C9307C0FC01208131813093FC
S11315D0D8192093D7190190F081E02D3097C1F0EC
S11315E04281538164817581EC018A819B81AC8144
S11315F0BD81840F951FA61FB71F82839383A48385
S1131600B58306C0DF01ED91FC911197309791F6F7
S1131610DF91CF910895E091D719F091D8193097BF
S113162071F0E817F90721F40CC08E179F0759F0E1
S11316300190F081E02D3097C1F780E0089580E0BB
S1131640089581E0089581E00895CF93DF93EC013C
S1131650E2DF811102C0CE0138DFDF91CF9108951E
S1131660CF92DF92EF92FF92CF93DF938091D919BB
S1131670882309F459C08FB7F894C090D9191092EF
S1131680D9198FBFD12CE12CF12CCC0CDD1CEE1C14
S1131690FF1CD701C601880F991FAA1FBB1F880F03
S11316A0991FAA1FBB1FC80ED91EEA1EFB1EC0919C
S11316B0D719D091D8192097B9F18A819B81AC812F
S11316C0BD81C816D906EA06FB0610F1C81AD90A64
S11316D0EA0AFB0A888199819093D8198093D719D3
S11316E08A85813011F4CE01F0DEEB85FC85CE01D4
S11316F01995C091D719D091D8192097A9F08A814A
S11317009B81AC81BD81C816D906EA06FB06F0F6BA
S11317108A819B81AC81BD818C199D09AE09BF0969
S11317208A839B83AC83BD83DF91CF91FF90EF903D
S1131730DF90CF900895A1E21A2EAA1BBB1BFD01D6
S11317400DC0AA1FBB1FEE1FFF1FA217B307E4079C
S1131750F50720F0A21BB30BE40BF50B661F771FF4
S1131760881F991F1A9469F76095709580959095D4
S11317709B01AC01BD01CF0108958F929F92AF925E
S1131780BF92CF92DF92EF92FF92CF93DF93EC015F
S1131790688179818A819B81611571058105910533
S11317A021F464E279ED8BE597E02DE133EF41E03C
S11317B050E041D049015A019B01AC01A7EAB1E4D0
S11317C056D06B017C01ACEEB4EFA50194015BD063
S11317D0DC01CB018C0D9D1DAE1DBF1DB7FF03C0E9
S11317E00197A109B04888839983AA83BB839F7713
S11317F0DF91CF91FF90EF90DF90CF90BF90AF90AB
S11318009F908F900895B9CF80E092E0B6CFA0E08A
S1131810B0E08093000290930102A0930202B0937F
S113182003020895FB01DC0102C001900D924150B6
S11318305040D8F70895052E97FB16F400940FD066
S113184057FD05D078DF07FC02D046F408C0509558
S11318504095309521953F4F4F4F5F4F0895909598
S11318608095709561957F4F8F4F9F4F08950FD04E
S1131870A59F900DB49F900DA49F800D911D1124E0
S11318800895B7FFF4CFF3DF821B930B0895A29F53
S1131890B001B39FC001A39F700D811D1124911D40
S11318A0B29F700D811D1124911D0895F894FFCFEE
S10718B0010000002F
S9030000FC
